{
  "contractName": "Stage2",
  "abi": [
    {
      "constant": true,
      "inputs": [],
      "name": "endTime",
      "outputs": [
        {
          "name": "",
          "type": "uint256"
        }
      ],
      "payable": false,
      "stateMutability": "view",
      "type": "function"
    },
    {
      "constant": true,
      "inputs": [],
      "name": "startTime",
      "outputs": [
        {
          "name": "",
          "type": "uint256"
        }
      ],
      "payable": false,
      "stateMutability": "view",
      "type": "function"
    },
    {
      "constant": true,
      "inputs": [],
      "name": "stage",
      "outputs": [
        {
          "name": "",
          "type": "uint8"
        }
      ],
      "payable": false,
      "stateMutability": "view",
      "type": "function"
    },
    {
      "inputs": [
        {
          "name": "_startTime",
          "type": "uint256"
        },
        {
          "name": "_endTime",
          "type": "uint256"
        }
      ],
      "payable": false,
      "stateMutability": "nonpayable",
      "type": "constructor"
    }
  ],
  "bytecode": "0x60806040526000600260006101000a81548160ff0219169083600281111561002357fe5b021790555034801561003457600080fd5b506040516040806102bd83398101806040528101908080519060200190929190805190602001909291905050504282101515156100d9576040517f08c379a000000000000000000000000000000000000000000000000000000000815260040180806020018281038252601c8152602001807f53746172742074696d652063616e6e6f7420626520696e20706173740000000081525060200191505060405180910390fd5b8181111515610176576040517f08c379a000000000000000000000000000000000000000000000000000000000815260040180806020018281038252602a8152602001807f456e642074696d65206861766520746f2062652062696767657220746861742081526020017f73746172742074696d650000000000000000000000000000000000000000000081525060400191505060405180910390fd5b81600081905550806001819055505050610128806101956000396000f3006080604052600436106053576000357c0100000000000000000000000000000000000000000000000000000000900463ffffffff1680633197cbb614605857806378e97925146080578063c040e6b81460a8575b600080fd5b348015606357600080fd5b50606a60dd565b6040518082815260200191505060405180910390f35b348015608b57600080fd5b50609260e3565b6040518082815260200191505060405180910390f35b34801560b357600080fd5b5060ba60e9565b6040518082600281111560c957fe5b60ff16815260200191505060405180910390f35b60015481565b60005481565b600260009054906101000a900460ff16815600a165627a7a7230582059d45659f3e6f9e2628014fb3d7fda21484cf6cb09cc4c56b1e35a1327e16e330029",
  "source": "pragma solidity ^0.4.23;\r\n\r\ncontract Stage2 {\r\n  enum Stage { Scheduled, Running, Finished }\r\n\r\n  uint public startTime;\r\n  uint public endTime;\r\n  Stage public stage = Stage.Scheduled;\r\n\r\n  constructor(uint _startTime, uint _endTime) public {\r\n    require(_startTime >= now, 'Start time cannot be in past');\r\n    require(_endTime > _startTime, 'End time have to be bigger that start time');\r\n\r\n    startTime = _startTime;\r\n    endTime = _endTime;\r\n  }\r\n\r\n  modifier whileRunning() {\r\n    require(stage == Stage.Running, 'You can only vote while running');\r\n    _;\r\n  }\r\n}\r\n",
  "sourcePath": "/mnt/d/projects/workshop_0x0_seed/contracts/Stage2.sol",
  "compiler": {
    "name": "solc",
    "version": "0.4.23+commit.124ca40d.Emscripten.clang"
  },
  "schemaVersion": "2.0.0",
  "updatedAt": "2018-04-26T19:52:51.775Z"
}